:020000040800F2
:1000000000280020D11500086115000867150008B8
:100010006D15000873150008791500080000000030
:100020000000000000000000000000007F15000834
:100030008B1500080000000097150008A3150008A4
:1000400019160008191600081916000819160008D4
:1000500019160008191600081916000819160008C4
:1000600019160008191600081916000819160008B4
:1000700019160008191600081916000819160008A4
:100080001916000819160008191600081916000894
:100090001916000819160008191600081916000884
:1000A0001916000819160008191600081916000874
:1000B000B115000819160008000000001916000804
:1000C00019160008000000000000000019160008C2
:1000D00000000000191600081916000800000000B2
:1000E000191600081916000819160008000000006B
:1000F0000000000000000000000000000000000000
:0C01000000000000000000005FF808F1A3
:10010C0010B5054C237833B9044B13B10448AFF345
:10011C0000800123237010BD34000020000000007B
:10012C00742C000808B5034B1BB103490348AFF30B
:10013C00008008BD0000000038000020742C00086E
:10014C0080B483B000AF7860094A7B6852F82330E2
:10015C00012B06D1064A7B68002142F823100123AB
:10016C0000E0002318460C37BD4680BC704700BF2A
:10017C008000002080B483B000AF7860044A7B68B4
:10018C00012142F8231000BF0C37BD4680BC7047DC
:10019C008000002080B582B000AF00237B6084E03B
:1001AC00464A7B6852F8232045497B6841F8232056
:1001BC00444A7B6852F8232040497B6841F823204D
:1001CC007B68002B0AD102213F4801F00DFD03464C
:1001DC0019463C4A7B6842F823101AE07B68012BD5
:1001EC000AD10421384801F0FFFC03461946354A70
:1001FC007B6842F823100CE07B68022B09D10821A4
:10020C00314801F0F1FC034619462E4A7B6842F84E
:10021C0023102B4A7B6852F8232028497B6851F81D
:10022C0023309A423ED1254A7B6852F82320254937
:10023C007B6851F823309A4234D1244A7B6852F8B7
:10024C00232020497B6851F823309A4216D01D4A4E
:10025C007B6852F823201D497B6841F82320194AFA
:10026C007B6852F82330002B1CD1194A7B68C821BB
:10027C0042F823107868FFF77DFF13E0144A7B687F
:10028C0052F823305A1E12497B6841F82320104A39
:10029C007B6852F82330002B04D10C4A7B68012177
:1002AC0042F823107B6801337B607B68022B7FF75D
:1002BC0077AF00BF00BF0837BD4680BD6800002087
:1002CC005C00002050000020000801407400002059
:1002DC008C00002080B582B000AF78607B68092B61
:1002EC0000F2808101A252F823F000BF2103000824
:1002FC0069030008B1030008F90300084104000871
:10030C0089040008D10400081905000861050008DB
:10031C00A905000800220121C64801F07CFC00223E
:10032C000221C44801F077FC00220421C14801F0ED
:10033C0072FC00220821BF4801F06DFC0022102144
:10034C00BC4801F068FC00222021BA4801F063FC93
:10035C0001224021B74801F05EFC67E10122012136
:10036C00B44801F058FC00220221B24801F053FCC1
:10037C0000220421AF4801F04EFC01220821AD48B7
:10038C0001F049FC01221021AA4801F044FC012291
:10039C002021A84801F03FFC01224021A54801F092
:1003AC003AFC43E100220121A24801F034FC002276
:1003BC000221A04801F02FFC012204219D4801F0EC
:1003CC002AFC002208219B4801F025FC0022102168
:1003DC00984801F020FC01222021964801F01BFCDA
:1003EC0000224021934801F016FC1FE1002201215C
:1003FC00904801F010FC002202218E4801F00BFC09
:10040C00002204218B4801F006FC002208218948B7
:10041C0001F001FC01221021864801F0FCFB0122B5
:10042C002021844801F0F7FB00224021814801F093
:10043C00F2FBFBE0012201217E4801F0ECFB0022E3
:10044C0002217C4801F0E7FB00220421794801F0ED
:10045C00E2FB01220821774801F0DDFB012210218B
:10046C00744801F0D8FB00222021724801F0D3FB24
:10047C00002240216F4801F0CEFBD7E00022012181
:10048C006C4801F0C8FB012202216A4801F0C3FB51
:10049C0000220421674801F0BEFB002208216548B8
:1004AC0001F0B9FB01221021624801F0B4FB0022DB
:1004BC002021604801F0AFFB002240215D4801F093
:1004CC00AAFBB3E0002201215A4801F0A4FB01224F
:1004DC000221584801F09FFB00220421554801F0ED
:1004EC009AFB00220821534801F095FB00221021B1
:1004FC00504801F090FB002220214E4801F08BFB6C
:10050C00002240214B4801F086FB8FE000220121A4
:10051C00484801F080FB00220221464801F07BFB99
:10052C0000220421434801F076FB012208214148B6
:10053C0001F071FB012210213E4801F06CFB0122FD
:10054C0020213C4801F067FB01224021394801F091
:10055C0062FB6BE000220121364801F05CFB0022BB
:10056C000221344801F057FB00220421314801F0EC
:10057C0052FB002208212F4801F04DFB00221021D4
:10058C002C4801F048FB002220212A4801F043FBB3
:10059C0000224021274801F03EFB47E000220121C8
:1005AC00244801F038FB00220221224801F033FBE1
:1005BC00002204211F4801F02EFB002208211D48B7
:1005CC0001F029FB012210211A4801F024FB002222
:1005DC002021184801F01FFB00224021154801F092
:1005EC001AFB23E001220121124801F014FB012225
:1005FC000221104801F00FFB012204210D4801F0EB
:10060C000AFB012208210B4801F005FB01221021F5
:10061C00084801F000FB01222021064801F0FBFAFA
:10062C0001224021034801F0F6FA00BF00BF083751
:10063C00BD4680BD000C014080B582B000AF786033
:10064C007B68092B00F2BE8101A252F823F000BF97
:10065C0085060008D90600082D0700088107000848
:10066C00D5070008290800087D080008D1080008F3
:10067C00250900087909000800228021D04801F0E2
:10068C00CAFA00224FF48071CD4801F0C4FA00225E
:10069C004FF40071CA4801F0BEFA00224FF4806199
:1006AC00C74801F0B8FA00224FF40061C44801F0C9
:1006BC00B2FA00224FF48051C14801F0ACFA012289
:1006CC004FF40051BE4801F0A6FAA5E101228021A9
:1006DC00BB4801F0A0FA00224FF48071B84801F039
:1006EC009AFA00224FF40071B54801F094FA0122F5
:1006FC004FF48061B24801F08EFA01224FF4006190
:10070C00AF4801F088FA01224FF48051AC4801F057
:10071C0082FA01224FF40051A94801F07CFA7BE1E6
:10072C0000228021A64801F076FA00224FF4807155
:10073C00A34801F070FA01224FF40071A04801F0B7
:10074C006AFA00224FF480619D4801F064FA00229D
:10075C004FF400619A4801F05EFA01224FF4805187
:10076C00974801F058FA00224FF40051944801F0D8
:10077C0052FA51E100228021914801F04CFA0022FA
:10078C004FF480718E4801F046FA00224FF400714C
:10079C008B4801F040FA00224FF48061884801F048
:1007AC003AFA01224FF40061854801F034FA012233
:1007BC004FF48051824801F02EFA00224FF4005180
:1007CC007F4801F028FA27E1012280217C4801F0C2
:1007DC0022FA00224FF48071794801F01CFA0022B1
:1007EC004FF40071764801F016FA01224FF4806143
:1007FC00734801F010FA01224FF40061704801F0C7
:10080C000AFA00224FF480516D4801F004FA0022DC
:10081C004FF400516A4801F0FEF9FDE000228021FE
:10082C00674801F0F8F901224FF48071644801F037
:10083C00F2F900224FF40071614801F0ECF900224A
:10084C004FF480615E4801F0E6F901224FF400613B
:10085C005B4801F0E0F900224FF48051584801F058
:10086C00DAF900224FF40051554801F0D4F9D3E0E5
:10087C0000228021524801F0CEF901224FF4807100
:10088C004F4801F0C8F900224FF400714C4801F0B8
:10089C00C2F900224FF48061494801F0BCF90022F2
:1008AC004FF40061464801F0B6F900224FF4805134
:1008BC00434801F0B0F900224FF40051404801F0D8
:1008CC00AAF9A9E0002280213D4801F0A4F90022F8
:1008DC004FF480713A4801F09EF900224FF40071F8
:1008EC00374801F098F901224FF48061344801F047
:1008FC0092F901224FF40061314801F08CF9012288
:10090C004FF480512E4801F086F901224FF400512A
:10091C002B4801F080F97FE000228021284801F06B
:10092C007AF900224FF48071254801F074F9002205
:10093C004FF40071224801F06EF900224FF48061EF
:10094C001F4801F068F900224FF400611C4801F0C7
:10095C0062F900224FF48051194801F05CF9002231
:10096C004FF40051164801F056F955E00022802151
:10097C00134801F050F900224FF48071104801F037
:10098C004AF900224FF400710D4801F044F900229D
:10099C004FF480610A4801F03EF901224FF40061E6
:1009AC00074801F038F900224FF48051044801F057
:1009BC0032F900224FF40051014801F02CF92BE0E0
:1009CC00000C014001228021154801F024F901227C
:1009DC004FF48071124801F01EF901224FF400719E
:1009EC000F4801F018F901224FF480610C4801F016
:1009FC0012F901224FF40061094801F00CF90122AF
:100A0C004FF48051064801F006F901224FF40051D1
:100A1C00034801F000F900BF00BF0837BD4680BD98
:100A2C00000C014080B584B000AF786039603B6841
:100A3C001D4A82FB03129210DB17D31AFB603A6833
:100A4C00194B83FB02139910D317C91A0B469B0041
:100A5C000B445B00D31ABB607B68002B03D07B6814
:100A6C00012B0ED01BE000221021104801F0D3F80E
:100A7C00012220210D4801F0CEF8F868FFF72AFC7E
:100A8C000DE001221021094801F0C5F800222021B7
:100A9C00064801F0C0F8B868FFF71CFC00BF00BFA7
:100AAC001037BD4680BD00BF676666660008014012
:100ABC0080B584B000AF786039603B681D4A82FB1A
:100ACC0003129210DB17D31AFB603A68194B83FBA5
:100ADC0002139910D317C91A0B469B000B445B00E9
:100AEC00D31ABB607B68002B03D07B68012B0ED024
:100AFC001BE000224021104801F08DF801228021DA
:100B0C000D4801F088F8F868FFF796FD0DE001221A
:100B1C004021094801F07FF800228021064801F0AD
:100B2C007AF8B868FFF788FD00BF00BF1037BD46E4
:100B3C0080BD00BF676666660008014080B500AFE7
:100B4C0000F066FD00F028F800F0AEF800F060F858
:100B5C000A4801F0C9FC0A4B01221A60094B012218
:100B6C001A60094B01221A60084B0A221A60084BC2
:100B7C0064221A60074B01221A60FEE7A8000020CD
:100B8C00980000209C000020000000202000002085
:100B9C00040000202400002080B590B000AF07F1C5
:100BAC00180328220021184602F056F83B1D00229B
:100BBC001A605A609A60DA601A610223BB610123E1
:100BCC00BB621023FB6200237B6307F118031846FA
:100BDC0001F052F80346002B01D000F0D5F80F239A
:100BEC007B600023BB600023FB6000233B61002380
:100BFC007B613B1D0021184601F0C0FA0346002B17
:100C0C0001D000F0C1F800BF4037BD4680BD0000E8
:100C1C0080B586B000AF07F1080300221A605A6055
:100C2C009A60DA603B4600221A605A601D4B4FF006
:100C3C0080421A601B4B41F63F725A60194B0022DE
:100C4C009A60184B0922DA60164B00221A61154B78
:100C5C0000229A61134801F0F7FB0346002B01D0E8
:100C6C0000F092F84FF48053BB6007F1080319466B
:100C7C000C4801F08DFD0346002B01D000F084F8E8
:100C8C0000233B6000237B603B461946054801F07E
:100C9C0055FF0346002B01D000F076F800BF183743
:100CAC00BD4680BDA800002080B586B000AF07F11E
:100CBC00080300221A605A609A60DA60284B9B691C
:100CCC00274A43F004039361254B9B6903F004030B
:100CDC007B607B68224B9B69214A43F0080393613C
:100CEC001F4B9B6903F008033B603B68002243F6F3
:100CFC00F0711C4800F08FFF002243F6FF711A4878
:100D0C0000F089FF0E23BB600023FB6001233B61D5
:100D1C0007F108031946134800F0EAFD43F6F07397
:100D2C00BB600123FB6000233B6102237B6107F165
:100D3C00080319460B4800F0DBFD43F6FF73BB605C
:100D4C000123FB6000233B6102237B6107F1080355
:100D5C001946054800F0CCFD00BF1837BD4680BDD4
:100D6C000010024000080140000C014080B582B028
:100D7C0000AF786000F04AFB00F00CF8FFF70AFABD
:100D8C0000BF0837BD4680BD80B400AF72B600BF4F
:100D9C00FEE7000080B500AF0020FFF7D1F9034655
:100DAC00012B0BD1154B1B680133144A1360134BE9
:100DBC001B68042B02DD114B01221A600F4B1B68C0
:100DCC00013B032B16D801A252F823F0E90D0008C1
:100DDC00EF0D0008F50D0008FB0D000800F010F8F1
:100DEC0009E000F0B5F806E000F04CF903E000F083
:100DFC00E3F900E000BF00BF80BD00BF240000206D
:100E0C0080B500AF4B4B1B68002B60D1494B642263
:100E1C001A60494B1B68002B09D1484B1A68484B88
:100E2C001B681A44474B1B681344434A1360434BDB
:100E3C001A68434B1B681A44424B1B681A443E4BBE
:100E4C001B689A420CD100F051FA3C4B1B683E4A8D
:100E5C00136000F0ABFA3A4B1B683C4A136031E06C
:100E6C00364B1A68374B1B681A44334B1B689A4233
:100E7C0006D100F0B3FA334B1B68344A136021E0FF
:100E8C002F4B1A682F4B1B681A442B4B1B689A422A
:100E9C000CD100F043FA2A4B1B682B4A136000F06C
:100EAC006DFA264B1B68294A13600BE0224B1A681B
:100EBC00244B1B689A4205D100F048FA214B1B6861
:100ECC00214A13601C4B1B68013B1B4A1360194BD6
:100EDC001B68642B0CD11C4B1B6819460020FFF7B8
:100EEC00A1FD1A4B1B6819460020FFF7E1FD19E024
:100EFC00104B1B68322B15D1134B1B681946012064
:100F0C00FFF790FD114B1B6819460120FFF7D0FD30
:100F1C000D4B1B68013B0C4A13600C4B1B68013BCF
:100F2C000A4A1360034B1B68013B024A136000BF63
:100F3C0080BD00BF0400002020000020080000201D
:100F4C000C00002010000020A0000020A4000020B5
:100F5C0080B500AF414B1B68414A1360414B0222E4
:100F6C001A60414B1B68414A13600120FFF7E8F8F7
:100F7C000346012B0FD13C4B1B6801333A4A1360DB
:100F8C00394B1B68632B02DD374B01221A60364B41
:100F9C001B68364A13600220FFF7D2F80346012B78
:100FAC0011D1314B1B68324A1360314B1A682B4BF1
:100FBC001B681A442F4B1B6813442F4A13602C4B8D
:100FCC001B682A4A13602D4B1B68002B02D12B4B3C
:100FDC0064221A60294B1B68642B03D0274B1B68B7
:100FEC00322B2AD14FF48071254800F02CFE4FF49F
:100FFC000061234800F027FE204B1B68642B0CD1AA
:10100C001A4B1B6819460020FFF70CFD154B1B688B
:10101C0019460020FFF74CFD0FE0184B1B68322BD4
:10102C000BD1124B1B6819460120FFF7FBFC0D4B33
:10103C001B6819460120FFF73BFD0D4B1A68074B47
:10104C001B681A440B4B1B6813440B4A13600B4B65
:10105C001B68013B094A136000BF80BD0C000020D7
:10106C0018000020A400002014000020A000002084
:10107C0008000020100000202000002004000020A8
:10108C000008014080B500AF414B1B68414A13601A
:10109C00414B03221A60414B1B68414A13600120EB
:1010AC00FFF74EF80346012B0FD13C4B1B68013365
:1010BC003A4A1360394B1B68632B02DD374B012214
:1010CC001A60364B1B68364A13600220FFF738F85B
:1010DC000346012B11D1314B1B68324A13602C4B48
:1010EC001A68314B1B681A442E4B1B6813442F4A49
:1010FC0013602C4B1B682A4A13602D4B1B68002B6A
:10110C0002D12B4B64221A60294B1B68642B03D031
:10111C00274B1B68322B2AD14FF48061254800F0F5
:10112C0092FD4FF40051234800F08DFD204B1B68BD
:10113C00642B0CD11A4B1B6819460020FFF772FC6C
:10114C00154B1B6819460020FFF7B2FC0FE0184B3B
:10115C001B68322B0BD1124B1B6819460120FFF771
:10116C0061FC0D4B1B6819460120FFF7A1FC084BD5
:10117C001A680D4B1B681A440A4B1B6813440B4A24
:10118C0013600B4B1B68013B094A136000BF80BD09
:10119C000800002014000020A40000201C000020E7
:1011AC00A0000020100000200C00002020000020D7
:1011BC00040000200008014080B500AF414B1B68C3
:1011CC00414A1360414B04221A60414B1B68414A4F
:1011DC0013600120FEF7B4FF0346012B0FD13C4BEB
:1011EC001B6801333A4A1360394B1B68632B02DDD1
:1011FC00374B01221A60364B1B68364A13600220AB
:10120C00FEF79EFF0346012B11D1314B1B68324A6E
:10121C001360324B1A68304B1B681A44294B1B68FD
:10122C0013442F4A13602C4B1B682A4A13602D4B16
:10123C001B68002B02D12B4B64221A60294B1B68B4
:10124C00642B03D0274B1B68322B2AD14FF400712F
:10125C00254800F0F8FC4FF48051234800F0F3FCD3
:10126C00204B1B68642B0CD11A4B1B6819460020B1
:10127C00FFF7D8FB154B1B6819460020FFF718FC2D
:10128C000FE0184B1B68322B0BD1124B1B68194605
:10129C000120FFF7C7FB0D4B1B6819460120FFF718
:1012AC0007FC0E4B1A680C4B1B681A44054B1B6849
:1012BC0013440B4A13600B4B1B68013B094A136028
:1012CC0000BF80BD100000201C000020A4000020E6
:1012DC0018000020A00000200C00002008000020B6
:1012EC0020000020040000200008014080B500AF61
:1012FC0001224FF48071084800F08DFC00224FF45D
:10130C000071054800F087FC00224FF48061024810
:10131C0000F081FC00BF80BD0008014080B500AF2B
:10132C0000224FF48071084800F075FC01224FF444
:10133C000071054800F06FFC00224FF480610248F8
:10134C0000F069FC00BF80BD0008014080B500AF13
:10135C0000224FF48071084800F05DFC00224FF42D
:10136C000071054800F057FC01224FF480610248DF
:10137C0000F051FC00BF80BD0008014080B500AFFB
:10138C0001224FF40061084800F045FC00224FF4A4
:10139C008051054800F03FFC00224FF400510248F8
:1013AC0000F039FC00BF80BD0008014080B500AFE3
:1013BC0000224FF40061084800F02DFC01224FF48C
:1013CC008051054800F027FC00224FF400510248E0
:1013DC0000F021FC00BF80BD0008014080B500AFCB
:1013EC0000224FF40061084800F015FC00224FF475
:1013FC008051054800F00FFC01224FF400510248C7
:10140C0000F009FC00BF80BD0008014080B400AFB3
:10141C00254B1B68002B04DD234B1B68013B224A28
:10142C001360214B1B68002B04DC204B1B68013321
:10143C001E4A13601E4B1B68002B04DD1C4B1B68E3
:10144C00013B1B4A13601A4B1B68002B04DC194B25
:10145C001B680133174A1360174B1B68002B04DD04
:10146C00154B1B68013B144A1360134B1B68002B74
:10147C0004DC124B1B680133104A1360104B1B68C1
:10148C00002B04DD0E4B1B68013B0D4A13600C4B0B
:10149C001B68002B04DC0B4B1B680133094A1360DF
:1014AC0000BFBD4680BC7047F4000020F000002057
:1014BC00FC000020F80000200401002000010020A6
:1014CC000C0100200801002080B483B000AF0E4B4B
:1014DC009B690D4A43F0010393610B4B9B6903F02D
:1014EC0001037B607B68084BDB69074A43F0805340
:1014FC00D361054BDB6903F080533B603B6800BF55
:10150C000C37BD4680BC70470010024080B584B0DB
:10151C0000AF78607B681B68B3F1804F13D10C4B24
:10152C00DB690B4A43F00103D361094BDB6903F020
:10153C000103FB60FB68002200211C2000F0A1F9D4
:10154C001C2000F0BAF900BF1037BD4680BD00BFAB
:10155C000010024080B400AFFEE780B400AFFEE79D
:10156C0080B400AFFEE780B400AFFEE780B400AFFC
:10157C00FEE780B400AF00BFBD4680BC704780B4AE
:10158C0000AF00BFBD4680BC704780B400AF00BF49
:10159C00BD4680BC704780B500AF00F07FF800BF3F
:1015AC0080BD000080B500AF024800F0E9FF00BF2D
:1015BC0080BD00BFA800002080B400AF00BFBD46B6
:1015CC0080BC70470C480D490D4A002302E0D458EA
:1015DC00C4500433C4188C42F9D30A4A0A4C002371
:1015EC0001E013600432A242FBD3FFF7E5FF01F0E8
:1015FC000FFBFFF7A3FA7047000000203400002017
:10160C00B42C00083400002014010020FEE7000078
:10161C0080B500AF084B1B68074A43F010031360FA
:10162C00032000F023F90F2000F008F8FFF74CFF1F
:10163C000023184680BD00BF0020024080B582B058
:10164C0000AF7860124B1A68124B1B7819464FF496
:10165C007A73B3FBF1F3B2FBF3F3184600F03BF9EA
:10166C000346002B01D001230EE07B680F2B0AD818
:10167C00002279684FF0FF3000F003F9064A7B68CE
:10168C001360002300E0012318460837BD4680BDD7
:10169C0028000020300000202C00002080B400AF77
:1016AC00054B1B781A46054B1B681344034A136001
:1016BC0000BFBD4680BC70473000002010010020E8
:1016CC0080B400AF024B1B681846BD4680BC704707
:1016DC001001002080B485B000AF78607B6803F007
:1016EC000703FB600C4BDB68BB60BA684FF6FF036B
:1016FC001340BB60FB681A02BB68134343F0BF6323
:10170C0043F40033BB60044ABB68D36000BF14379A
:10171C00BD4680BC704700BF00ED00E080B400AF58
:10172C00044BDB681B0A03F007031846BD4680BC5C
:10173C00704700BF00ED00E080B483B000AF0346FB
:10174C00FB7197F90730002B0BDBFB7903F01F02C1
:10175C00064997F907305B09012000FA02F241F8BB
:10176C00232000BF0C37BD4680BC704700E100E071
:10177C0080B483B000AF03463960FB7197F9073032
:10178C00002B0ADB3B68DAB20C4997F907301201DF
:10179C00D2B20B4483F800230AE03B68DAB2084962
:1017AC00FB7903F00F03043B1201D2B20B441A76FF
:1017BC0000BF0C37BD4680BC704700BF00E100E0A5
:1017CC0000ED00E080B489B000AFF860B9607A60D9
:1017DC00FB6803F00703FB61FB69C3F10703042BF0
:1017EC0028BF0423BB61FB690433062B02D9FB69B8
:1017FC00033B00E000237B614FF0FF32BB6902FA30
:10180C0003F3DA43BB681A407B699A404FF0FF310F
:10181C007B6901FA03F3D9437B680B4013431846E9
:10182C002437BD4680BC704780B582B000AF78606D
:10183C007B68013BB3F1807F01D301230FE00A4A9F
:10184C007B68013B53600F214FF0FF30FFF790FF97
:10185C00054B00229A60044B07221A60002318469D
:10186C000837BD4680BD00BF10E000E080B582B0F7
:10187C0000AF78607868FFF72DFF00BF0837BD46D2
:10188C0080BD80B586B000AF0346B9607A60FB734B
:10189C0000237B61FFF742FF78617A68B968786949
:1018AC00FFF790FF024697F90F3011461846FFF7E5
:1018BC005FFF00BF1837BD4680BD80B582B000AF5A
:1018CC000346FB7197F907301846FFF735FF00BF49
:1018DC000837BD4680BD80B582B000AF78607868AF
:1018EC00FFF7A2FF034618460837BD4680BD00002F
:1018FC0080B48BB000AF7860396000237B6200232A
:10190C003B6261E101227B6A02FA03F3FB613B68F3
:10191C001B68FA691340BB61BA69FB699A4240F0D3
:10192C0050813B685B68974A93425ED0954A9342DC
:10193C0075D8954A934258D0934A93426FD8934A9C
:10194C00934252D0914A934269D8914A93424CD0D7
:10195C008F4A934263D88F4A934246D08D4A934222
:10196C005DD8122B2AD8122B59D801A252F823F089
:10197C00F7190008D1190008E3190008251A000806
:10198C002B1A00082B1A00082B1A00082B1A000817
:10199C002B1A00082B1A00082B1A00082B1A000807
:1019AC002B1A00082B1A00082B1A00082B1A0008F7
:1019BC002B1A0008D9190008ED190008764A934231
:1019CC0013D02CE03B68DB683B6229E03B68DB68AA
:1019DC0004333B6224E03B68DB6808333B621FE066
:1019EC003B68DB680C333B621AE03B689B68002B5E
:1019FC0002D104233B6213E03B689B68012B05D1A9
:101A0C0008233B627B68FA691A6109E008233B6290
:101A1C007B68FA695A6103E000233B6200E000BF77
:101A2C00BB69FF2B01D87B6801E07B6804337B61C9
:101A3C00BB69FF2B02D87B6A9B0002E07B6A083BE8
:101A4C009B003B617B691A680F213B6901FA03F328
:101A5C00DB431A40396A3B6901FA03F31A437B6989
:101A6C001A603B685B6803F08053002B00F0A98080
:101A7C004A4B9B69494A43F001039361474B9B696D
:101A8C0003F00103BB60BB68454A7B6A9B080233C9
:101A9C0052F82330FB607B6A03F003039B000F2298
:101AAC0002FA03F3DB43FA681340FB607B683D4AA0
:101ABC0093420DD07B683C4A934207D07B683B4AEB
:101ACC00934201D1022304E0032302E0012300E04E
:101ADC0000237A6A02F0030292009340FA681343DF
:101AEC00FB602F497B6A9B080233FA6841F823207C
:101AFC003B685B6803F48033002B06D02C4B1A68D0
:101B0C002B49BB6913430B6006E0294B1A68BB6970
:101B1C00DB43274913400B603B685B6803F40033DD
:101B2C00002B06D0224B5A682149BB6913434B60EA
:101B3C0006E01F4B5A68BB69DB431D4913404B60E1
:101B4C003B685B6803F48013002B06D0184B9A6833
:101B5C001749BB6913438B6006E0154B9A68BB6948
:101B6C00DB43134913408B603B685B6803F4001341
:101B7C00002B1FD00E4BDA680D49BB691343CB60A9
:101B8C001FE000BF000032100000311000002210D6
:101B9C000000211000001210000011100010024073
:101BAC000000014000080140000C01400010014001
:101BBC00000401400B4BDA68BB69DB430949134055
:101BCC00CB607B6A01337B623B681A687B6A22FAC2
:101BDC0003F3002B7FF496AE00BF00BF2C37BD463D
:101BEC0080BC70470004014080B485B000AF7860C1
:101BFC000B467B807B689A687B881340002B02D055
:101C0C000123FB7301E00023FB73FB7B18461437A5
:101C1C00BD4680BC704780B483B000AF78600B4683
:101C2C007B8013467B707B78002B03D07A887B6893
:101C3C001A6103E07B881A047B681A6100BF0C37B9
:101C4C00BD4680BC704780B485B000AF78600B4651
:101C5C007B807B68DB68FB607A88FB6813401A0426
:101C6C00FB68D9437B880B401A437B681A6100BF21
:101C7C001437BD4680BC704780B586B000AF786025
:101C8C007B68002B01D1012372E27B681B6803F097
:101C9C000103002B00F08780924B5B6803F00C0370
:101CAC00042B0CD08F4B5B6803F00C03082B12D168
:101CBC008C4B5B6803F48033B3F5803F0BD1894BBD
:101CCC001B6803F40033002B6CD07B685B68002B23
:101CDC0068D101234CE27B685B68B3F5803F06D189
:101CEC00804B1B687F4A43F4803313602EE07B6883
:101CFC005B68002B0CD17B4B1B687A4A23F4803336
:101D0C001360784B1B68774A23F4802313601DE023
:101D1C007B685B68B3F5A02F0CD1724B1B68714AC2
:101D2C0043F4802313606F4B1B686E4A43F480337B
:101D3C0013600BE06B4B1B686A4A23F4803313600F
:101D4C00684B1B68674A23F4802313607B685B68CD
:101D5C00002B13D0FFF7B4FC386108E0FFF7B0FCA0
:101D6C0002463B69D31A642B01D9032300E25D4B75
:101D7C001B6803F40033002BF0D014E0FFF7A0FC39
:101D8C00386108E0FFF79CFC02463B69D31A642BD0
:101D9C0001D90323ECE1534B1B6803F40033002BF4
:101DAC00F0D100E000BF7B681B6803F00203002B3E
:101DBC0063D04C4B5B6803F00C03002B0BD0494BEE
:101DCC005B6803F00C03082B1CD1464B5B6803F4D7
:101DDC008033002B16D1434B1B6803F00203002BFE
:101DEC0005D07B681B69012B01D00123C0E13D4B61
:101DFC001B6823F0F8027B685B69DB0039491343ED
:101E0C000B603AE07B681B69002B20D0364B01221B
:101E1C001A60FFF755FC386108E0FFF751FC0246E9
:101E2C003B69D31A022B01D90323A1E12D4B1B686B
:101E3C0003F00203002BF0D02A4B1B6823F0F802AE
:101E4C007B685B69DB00274913430B6015E0264B6D
:101E5C0000221A60FFF734FC386108E0FFF730FC11
:101E6C0002463B69D31A022B01D9032380E11D4B97
:101E7C001B6803F00203002BF0D17B681B6803F096
:101E8C000803002B3AD07B689B69002B19D0174BA9
:101E9C0001221A60FFF714FC386108E0FFF710FC10
:101EAC0002463B69D31A022B01D9032360E10D4B87
:101EBC005B6A03F00203002BF0D0012000F0A6FABD
:101ECC001CE00A4B00221A60FFF7FAFB38610FE0A6
:101EDC00FFF7F6FB02463B69D31A022B08D9032302
:101EEC0046E100BF00100240000042428004424222
:101EFC00924B5B6A03F00203002BE9D17B681B68F1
:101F0C0003F00403002B00F0A6800023FB758B4B21
:101F1C00DB6903F08053002B0DD1884BDB69874ABA
:101F2C0043F08053D361854BDB6903F08053BB6076
:101F3C00BB680123FB75824B1B6803F48073002B79
:101F4C0018D17F4B1B687E4A43F480731360FFF7F4
:101F5C00B7FB386108E0FFF7B3FB02463B69D31AC5
:101F6C00642B01D9032303E1754B1B6803F48073C5
:101F7C00002BF0D07B68DB68012B06D16F4B1B6A02
:101F8C006E4A43F0010313622DE07B68DB68002B83
:101F9C000CD16A4B1B6A694A23F001031362674B2D
:101FAC001B6A664A23F0040313621CE07B68DB683F
:101FBC00052B0CD1614B1B6A604A43F0040313627E
:101FCC005E4B1B6A5D4A43F0010313620BE05B4BF3
:101FDC001B6A5A4A23F001031362584B1B6A574A77
:101FEC0023F0040313627B68DB68002B15D0FFF72A
:101FFC0067FB38610AE0FFF763FB02463B69D31AC3
:10200C0041F28832934201D90323B1E04B4B1B6A56
:10201C0003F00203002BEED014E0FFF751FB386104
:10202C000AE0FFF74DFB02463B69D31A41F28832B6
:10203C00934201D903239BE0404B1B6A03F002033C
:10204C00002BEED1FB7D012B05D13C4BDB693B4AD0
:10205C0023F08053D3617B68DB69002B00F0878011
:10206C00364B5B6803F00C03082B61D07B68DB6993
:10207C00022B46D1334B00221A60FFF721FB38614B
:10208C0008E0FFF71DFB02463B69D31A022B01D96E
:10209C0003236DE0294B1B6803F00073002BF0D178
:1020AC007B681B6AB3F5803F08D1244B5B6823F433
:1020BC0000327B689B68214913434B601F4B5B6864
:1020CC0023F474127B68196A7B685B6A0B431B49A7
:1020DC0013434B601B4B01221A60FFF7F1FA386176
:1020EC0008E0FFF7EDFA02463B69D31A022B01D93F
:1020FC0003233DE0114B1B6803F00073002BF0D061
:10210C0035E0104B00221A60FFF7DAFA386108E06C
:10211C00FFF7D6FA02463B69D31A022B01D90323E7
:10212C0026E0064B1B6803F00073002BF0D11EE079
:10213C007B68DB69012B07D1012319E000100240F9
:10214C0000700040600042420B4B5B68FB60FB6818
:10215C0003F480327B681B6A9A4206D1FB6803F455
:10216C0070127B685B6A9A4201D0012300E0002365
:10217C0018461837BD4680BD0010024080B584B0AB
:10218C0000AF786039607B68002B01D10123D0E06F
:10219C006A4B1B6803F007033A689A4210D9674BE5
:1021AC001B6823F0070265493B6813430B60634BC4
:1021BC001B6803F007033A689A4201D00123B8E088
:1021CC007B681B6803F00203002B20D07B681B6824
:1021DC0003F00403002B05D0594B5B68584A43F4B9
:1021EC00E06353607B681B6803F00803002B05D089
:1021FC00534B5B68524A43F460535360504B5B68DB
:10220C0023F0F0027B689B684D4913434B607B685D
:10221C001B6803F00103002B40D07B685B68012B2B
:10222C0007D1474B1B6803F40033002B15D1012356
:10223C007FE07B685B68022B07D1414B1B6803F086
:10224C000073002B09D1012373E03D4B1B6803F095
:10225C000203002B01D101236BE0394B5B6823F0A7
:10226C0003027B685B68364913434B60FFF728FA1F
:10227C00F8600AE0FFF724FA0246FB68D31A41F231
:10228C008832934201D9032353E02D4B5B6803F052
:10229C000C027B685B689B009A42EBD1274B1B6856
:1022AC0003F007033A689A4210D2244B1B6823F0C0
:1022BC00070222493B6813430B60204B1B6803F059
:1022CC0007033A689A4201D0012332E07B681B680D
:1022DC0003F00403002B08D0194B5B6823F4E06275
:1022EC007B68DB68164913434B607B681B6803F003
:1022FC000803002B09D0124B5B6823F460527B68F7
:10230C001B69DB000E4913434B6000F021F80246B9
:10231C000B4B5B681B0903F00F030A49CB5C22FAD9
:10232C0003F3094A1360094B1B681846FFF786F93B
:10233C00002318461037BD4680BD00BF0020024068
:10234C00001002409C2C0008280000202C000020CB
:10235C0090B48AB000AF294B3C1D0FCB84E80F0022
:10236C0040F201233B800023FB610023BB6100236F
:10237C007B6200237B6100233B62214B5B68FB612A
:10238C00FB6903F00C03042B02D0082B03D02BE0C9
:10239C001C4B3B622BE0FB699B0C03F00F032833B7
:1023AC003B4413F8243C7B61FB6903F48033002B22
:1023BC0012D0134B5B685B0C03F0010328333B44D6
:1023CC0013F8283CBB617B690E4A03FB02F2BB6924
:1023DC00B2FBF3F37B6204E07B690B4A02FB03F371
:1023EC007B627B6A3B6202E0064B3B6200BF3B6A4E
:1023FC0018462837BD4690BC704700BF8C2C00088F
:10240C000010024000127A0000093D0080B485B033
:10241C0000AF78600A4B1B680A4AA2FB03235B0AD5
:10242C007A6802FB03F3FB6000BFFB685A1EFA607C
:10243C00002BF9D100BF00BF1437BD4680BC7047DC
:10244C0028000020D34D621080B582B000AF7860B8
:10245C007B68002B01D1012341E07B6893F83D3070
:10246C00DBB2002B06D17B68002283F83C20786815
:10247C00FFF74CF87B68022283F83D207B681A68D2
:10248C007B6804331946104600F06AFA7B68012217
:10249C0083F846207B68012283F83E207B6801226A
:1024AC0083F83F207B68012283F840207B6801225F
:1024BC0083F841207B68012283F842207B6801224B
:1024CC0083F843207B68012283F844207B68012237
:1024DC0083F845207B68012283F83D2000231846B1
:1024EC000837BD4680BD000080B485B000AF786071
:1024FC007B6893F83D30DBB2012B01D0012335E032
:10250C007B68022283F83D207B681B68DA687B6855
:10251C001B6842F00102DA607B681B68164A934222
:10252C0009D07B681B68B3F1804F04D07B681B68B3
:10253C00124A934211D17B681B689B6803F0070316
:10254C00FB60FB68062B10D07B681B681A687B68E5
:10255C001B6842F001021A6007E07B681B681A686E
:10256C007B681B6842F001021A600023184614377E
:10257C00BD4680BC704700BF002C014000040040E9
:10258C0080B582B000AF78607B681B681B6903F074
:10259C000203022B22D17B681B68DB6803F0020369
:1025AC00022B1BD17B681B686FF002021A617B68DF
:1025BC0001221A777B681B689B6903F00303002BCD
:1025CC0003D0786800F0B1F905E0786800F0A4F960
:1025DC00786800F0B3F97B6800221A777B681B6877
:1025EC001B6903F00403042B22D17B681B68DB6896
:1025FC0003F00403042B1BD17B681B686FF00402EF
:10260C001A617B6802221A777B681B689B6903F44A
:10261C004073002B03D0786800F087F905E07868E8
:10262C0000F07AF9786800F089F97B6800221A7753
:10263C007B681B681B6903F00803082B22D17B689D
:10264C001B68DB6803F00803082B1BD17B681B6835
:10265C006FF008021A617B6804221A777B681B688A
:10266C00DB6903F00303002B03D0786800F05DF9FD
:10267C0005E0786800F050F9786800F05FF97B6845
:10268C0000221A777B681B681B6903F01003102B60
:10269C0022D17B681B68DB6803F01003102B1BD165
:1026AC007B681B686FF010021A617B6808221A772E
:1026BC007B681B68DB6903F44073002B03D07868DC
:1026CC0000F033F905E0786800F026F9786800F03E
:1026DC0035F97B6800221A777B681B681B6903F04D
:1026EC000103012B0ED17B681B68DB6803F001032F
:1026FC00012B07D17B681B686FF001021A617868A7
:10270C00FEF734FB7B681B681B6903F08003802B8E
:10271C000ED17B681B68DB6803F08003802B07D12C
:10272C007B681B686FF080021A61786800F067FAAA
:10273C007B681B681B6903F04003402B0ED17B6840
:10274C001B68DB6803F04003402B07D17B681B68D8
:10275C006FF040021A61786800F0F9F87B681B682A
:10276C001B6903F02003202B0ED17B681B68DB68F0
:10277C0003F02003202B07D17B681B686FF020022D
:10278C001A61786800F032FA00BF0837BD4680BD88
:10279C0080B584B000AF786039607B6893F83C30CA
:1027AC00012B01D10223B3E07B68012283F83C208A
:1027BC007B68022283F83D207B681B689B68FB606A
:1027CC00FB6823F07703FB60FB6823F47F43FB601B
:1027DC007B681B68FA689A603B681B68B3F5005FFE
:1027EC003ED0B3F5005F00F28780B3F5805F00F058
:1027FC008580B3F5805F7FD8702B1AD0702B7BD877
:10280C00602B50D0602B77D8502B3CD0502B73D8EA
:10281C00402B58D0402B6FD8302B64D0302B6BD83A
:10282C00202B60D0202B67D8002B5CD0102B5AD0DB
:10283C0062E07B6818683B6899683B685A683B683B
:10284C00DB6800F05CF97B681B689B68FB60FB68CD
:10285C0043F07703FB607B681B68FA689A604EE074
:10286C007B6818683B6899683B685A683B68DB680A
:10287C0000F045F97B681B689A687B681B6842F41A
:10288C0080429A603BE07B6818683B6859683B68FB
:10289C00DB681A4600F0BCF87B681B6850211846B0
:1028AC0000F013F92BE07B6818683B6859683B68AB
:1028BC00DB681A4600F0DAF87B681B686021184662
:1028CC0000F003F91BE07B6818683B6859683B68AB
:1028DC00DB681A4600F09CF87B681B6840211846A0
:1028EC0000F0F3F80BE07B681A683B681B6819462C
:1028FC00104600F0EAF802E000BF00E000BF7B6881
:10290C00012283F83D207B68002283F83C200023C1
:10291C0018461037BD4680BD80B483B000AF7860D8
:10292C0000BF0C37BD4680BC704780B483B000AF8D
:10293C00786000BF0C37BD4680BC704780B483B054
:10294C0000AF786000BF0C37BD4680BC704780B4C8
:10295C0083B000AF786000BF0C37BD4680BC7047B9
:10296C0080B485B000AF786039607B681B68FB6011
:10297C007B68254A934207D07B68B3F1804F03D024
:10298C007B68224A934208D1FB6823F07003FB60FA
:10299C003B685B68FA681343FB607B681A4A934296
:1029AC0007D07B68B3F1804F03D07B68174A934202
:1029BC0008D1FB6823F44073FB603B68DB68FA6862
:1029CC001343FB60FB6823F080023B685B69134395
:1029DC00FB607B68FA681A603B689A687B68DA620D
:1029EC003B681A687B689A627B68074A934203D1FA
:1029FC003B681A697B681A637B6801225A6100BFC5
:102A0C001437BD4680BC7047002C014000040040C8
:102A1C0080B487B000AFF860B9607A60FB681B6A5D
:102A2C007B61FB681B6A23F00102FB681A62FB687E
:102A3C009B693B613B6923F0F0033B617B681B01A5
:102A4C003A6913433B617B6923F00A037B617A6922
:102A5C00BB6813437B61FB683A699A61FB687A69CE
:102A6C001A6200BF1C37BD4680BC704780B487B06B
:102A7C0000AFF860B9607A60FB681B6A23F0100243
:102A8C00FB681A62FB689B697B61FB681B6A3B6194
:102A9C007B6923F470437B617B681B037A69134366
:102AAC007B613B6923F0A0033B61BB681B013A6966
:102ABC0013433B61FB687A699A61FB683A691A6255
:102ACC0000BF1C37BD4680BC704780B485B000AFDA
:102ADC00786039607B689B68FB60FB6823F070034F
:102AEC00FB603A68FB68134343F00703FB607B68A9
:102AFC00FA689A6000BF1437BD4680BC704780B43A
:102B0C0087B000AFF860B9607A603B60FB689B6887
:102B1C007B617B6923F47F437B613B681A027B6892
:102B2C001A43BB6813437A6913437B61FB687A6968
:102B3C009A6000BF1C37BD4680BC704780B485B01E
:102B4C0000AF786039607B6893F83C30012B01D181
:102B5C00022341E07B68012283F83C207B6802223F
:102B6C0083F83D207B681B685B68FB607B681B6897
:102B7C009B68BB60FB6823F07003FB603B681B68C1
:102B8C00FA681343FB607B681B68FA685A607B68C1
:102B9C001B68144A934209D07B681B68B3F1804FC1
:102BAC0004D07B681B68104A93420CD1BB6823F09D
:102BBC008003BB603B685B68BA681343BB607B688F
:102BCC001B68BA689A607B68012283F83D207B6899
:102BDC00002283F83C20002318461437BD4680BCE5
:102BEC00704700BF002C01400004004080B483B04B
:102BFC0000AF786000BF0C37BD4680BC704780B416
:102C0C0083B000AF786000BF0C37BD4680BC704706
:102C1C0070B500260C4D0D4C641BA410A64209D1B6
:102C2C0000F022F800260A4D0A4C641BA410A642A0
:102C3C0005D170BD55F8043B98470136EEE755F8C1
:102C4C00043B98470136F2E7AC2C0008AC2C00088A
:102C5C00AC2C0008B02C000803460244934200D16F
:102C6C00704703F8011BF9E7F8B500BFF8BC08BCC6
:102C7C009E467047F8B500BFF8BC08BC9E4670472E
:102C8C0002030405060708090A0B0C0D0E0F1010A1
:102C9C000000000000000000010203040607080900
:042CAC0031010008EA
:042CB0000D0100080A
:102CB40001000000640000000500000003000000A3
:102CC40002000000050000000300000002000000F4
:102CD4000A000000010000000024F40010000000BD
:042CE40001000000EB
:04000005080015D109
:00000001FF
